:020000040800F2
:10000000B04E0020E90200083F3B00080131000823
:100010003D3B0008CB050008294400080000000013
:10002000000000000000000000000000290200089D
:100030002D0B00080000000085020008D13B0008DD
:100040000303000803030008030300080303000878
:100050000303000803030008030300080303000868
:100060000303000803030008030300080303000858
:100070007506000803030008810600080303000852
:100080000303000803030008030300081506000823
:10009000090600080303000803030008030300081F
:1000A0000303000803030008030300080303000818
:1000B00003030008A13C0008030300080303000831
:1000C00003030008030300080303000803030008F8
:1000D00003030008D541000803030008E1410008BC
:1000E00003030008030300080303000803030008D8
:1000F00003030008030300080303000803030008C8
:1001000003030008030300080303000803030008B7
:1001100003030008030300080303000803030008A7
:10012000030300088D060008990600080303000871
:10013000030300080303000803030008690600081E
:100140005D0600080303000803030008030300081A
:1001500003030008A5060008B1060008394300089B
:100160000303000803030008030300080303000857
:100170000303000803030008030300080000000055
:10018000030300080303000800F002F800F03CF845
:100190000AA090E8000C82448344AAF10107DA45E2
:1001A00001D100F031F8AFF2090EBAE80F0013F0F8
:1001B000010F18BFFB1A43F001031847F452000067
:1001C00014530000103A24BF78C878C1FAD85207F7
:1001D00024BF30C830C144BF04680C6070470000C1
:1001E0000023002400250026103A28BF78C1FBD840
:1001F000520728BF30C148BF0B6070471FB504F0DD
:1002000071FF1FBD10B510BD00F0A6F91146FFF734
:10021000F5FF04F0B3F900F0C4F903B4FFF7F2FFFF
:1002200003BC00F0CBF900002C4B19680868B0E85B
:10023000F04F80F30988BFF36F8F4FF0000080F319
:10024000118870470000000008480068006880F3CB
:1002500008884FF0000080F3148862B661B6BFF3DF
:100260004F8FBFF36F8F00DF00BF00BF08ED00E0CE
:10027000DFF80C00016841F470010160704700BFB5
:1002800088ED00E0EFF30980BFF36F8F134B1A681E
:100290001EF0100F08BF20ED108A20E9F04F10600B
:1002A00009B44FF0500080F31188BFF34F8FBFF3B4
:1002B0006F8F04F04FFD4FF0000080F3118809BCF0
:1002C00019680868B0E8F04F1EF0100F08BFB0ECD6
:1002D000108A80F30988BFF36F8F704724000020D5
:1002E000EFF3058070470000094880470948004740
:1002F000FEE7FEE7FEE7FEE7FEE7FEE7FEE7FEE7D6
:10030000FEE7FEE704480549054A064B7047000032
:10031000913C000889010008B0480020B04E002040
:10032000B04A0020B04A002053EA020C00F0698075
:100330002DE9F04B4FF00006002B1FBFB3FA83F5F9
:1003400003FA05F424FA05F65E4012BF1643B2FA2A
:1003500082F502FA05F4C5F120051EBF22FA05FC5C
:1003600044EA0C04203556EA044C4FEA144418BF02
:10037000641C4FF000084FF00009904271EB030C31
:1003800039D3002919BFB1FA81F701FA07F6B0FA9B
:1003900080F700FA07F6C7F120071EBF20FA07FC16
:1003A00046EA0C062037B6FBF4FCA7EB0507103F26
:1003B00007F01F0BCBF120060CFA0BFB2CFA06F60C
:1003C00044BFB3460026202FA4BF5E464FF0000B6B
:1003D0005BEA060C08BF4FF0010B19EB0B09ABFBF6
:1003E000027C48EB0608C01B06FB02CC0BFB03CCCF
:1003F00071EB0C01C1E70B46024641464846BDE899
:10040000F08B13B54FF000004FF00001AFF3008008
:10041000BDE81C407047032A40F2308010F0030C06
:1004200000F0158011F8013BBCF1020F624498BF47
:1004300011F801CB00F8013B38BF11F8013BA2F1E4
:10044000040298BF00F801CB38BF00F8013B11F05F
:10045000030300F02580083AC0F0088051F8043BFF
:10046000083A51F804CBA0E80810F5E7121D5CBF6C
:1004700051F8043B40F8043BAFF30080D20724BF9F
:1004800011F8013B11F801CB48BF11F8012B24BF33
:1004900000F8013B00F801CB48BF00F8012B704782
:1004A00010B5203AC0F00B80B1E81850203AA0E80F
:1004B0001850B1E81850A0E81850BFF4F5AF5FEA43
:1004C000027C24BFB1E81850A0E8185044BF18C9F6
:1004D00018C0BDE810405FEA827C24BF51F8043B9D
:1004E00040F8043B08BF7047D20728BF31F8023BF1
:1004F00048BF11F8012B28BF20F8023B48BF00F885
:10050000012B70474FF0000200B513469446964603
:10051000203922BFA0E80C50A0E80C50B1F1200116
:10052000BFF4F7AF090728BFA0E80C5048BF0CC0C4
:100530005DF804EB890028BF40F8042B08BF704722
:1005400048BF20F8022B11F0804F18BF00F8012B94
:100550007047704770477047754600F02BF8AE46FD
:1005600005006946534620F00700854618B020B5BF
:10057000FFF7C8FEBDE820404FF000064FF000072F
:100580004FF000084FF0000B21F00701AC46ACE83B
:10059000C009ACE8C009ACE8C009ACE8C0098D46A8
:1005A000704710B50446AFF300802046BDE8104008
:1005B000FFF733BE004870474C480020014918201F
:1005C000ABBEFEE7260002007047FEE700B58BB029
:1005D00000200121CDE906010590009001900290D4
:1005E000039004900E20CDE908106946054800F0FC
:1005F000B5FB0221034800F031FB024800F056FF32
:100600000BB000BD1C030020014800F0A2BC00009C
:100610001C030020014800F09CBC00001C030020CB
:1006200000B58BB001220E2100200792CDE9051004
:1006300003900490CDE90821009001900290694652
:10064000054800F08BFB0221034800F007FB02483D
:1006500000F02CFF0BB000BD44030020014800F067
:1006600078BC000044030020014800F072BC000088
:1006700044030020014800F0A7BF000094050020BB
:10068000014800F0A1BF0000F4050020014800F07F
:100690009BBF000054060020014800F095BF0000F9
:1006A000D4040020014800F08FBF0000B4060020F1
:1006B000014800F089BF0000340500202DE9F04F0B
:1006C00085680024099E802D18D0894DC563894D09
:1006D000456490F83450012D15D0012580F8345030
:1006E00090F83550012D10D0002180F834100224EC
:1006F000002180F834102046BDE8F08F4FF480715F
:1007000041650120F8E70220F6E7022580F8355020
:100710000025456505682F6847F480272F60056828
:100720002B6103685E608368402B03682AD0996060
:100730000168CA60714D704E704FDFF8BC81DFF800
:10074000B891DFF8B8A1DFF8B4B1EA14DFF8A8E196
:100750000168183630379302A9F148090AF1600A96
:100760000BF1180BAEF1300E4FF0006C41452DD956
:10077000A94205D0494503D0514501D0B14205D128
:10078000202220E09A600268D160D3E759451AD050
:10079000714518D0594D7835A94214D0564D303591
:1007A000A94210D0B9420BD0534A183A914207D00F
:1007B000524A9032914203D04F4A4832914201D17D
:1007C0001A4600E062464C494C392EE0DFF82C8195
:1007D00008F1A80841452AD9A94205D0494503D0C6
:1007E000514501D0B14201D120221CE059451AD017
:1007F000714518D0414D7835A94214D03E4D303561
:10080000A94210D0B9420BD03B4A183A914207D0C6
:100810003A4A9032914203D0374A4832914201D14C
:100820001A4600E06246344950390A605AE0DFF85F
:10083000CC8008F1480841452AD9A94205D049454C
:1008400003D0514501D0B14201D120221CE05945CD
:100850001AD0714518D0294D7835A94214D0264DAB
:100860003035A94210D0B9420BD0234A183A9142F0
:1008700007D0224A9032914203D01F4A4832914217
:1008800001D11A4600E062461C491039CA6029E0CD
:10089000A94205D0494503D0514501D0B14201D10B
:1008A00020221CE059451AD0714518D0134D7835D7
:1008B000A94214D0104D3035A94210D0B9420BD006
:1008C0000D4A183A914207D00C4A9032914203D017
:1008D000094A4832914201D11A4600E0624607496E
:1008E00010398A6001680A6842F001020A60FFE676
:1008F000C14400080D4500085864024010600240E1
:1009000001681823CAB2103AB2FBF3F2054B6FF339
:100910000901032A9B5CC36500D9091D816508464E
:10092000704700006051000810B5014600208B6937
:100930008A6A4FF0C07453B1B3F5005F15D072B13D
:10094000012A0CD0022A0AD0032A09D104E01AB1E4
:10095000012A06D0022A03D1C96AC90100D50120A3
:1009600010BDC96AA142FAD010BD002AF7D0012AF1
:10097000F2D0022AF3D0032AF3D010BD30B50468B8
:10098000256825F480252560046863608368402B12
:10099000036803D099600068C26030BD9A60006847
:1009A000C16030BD70B5FF2486B0FC25019402946F
:1009B000CDE903452346224621460120009400F05C
:1009C000EFF84FF47A76304600F070FF019402940D
:1009D000FF23CDE903451A4619460220009400F092
:1009E000DFF8304600F062FF01940294FF23CDE966
:1009F00003451A4619460320009400F0D1F830460A
:100A000000F054FF01940294FF23CDE903451A46F8
:100A100019460120009400F08BF806B070BD00006C
:100A200010B5B7EE002A2DED028BF6EE001A9FED01
:100A3000398AB7EE001A9FED380AF0EE480A012015
:100A400002F014FE4FF4FA64204600F02FFFDFEDB1
:100A5000338AB7EE002AF6EE001AB7EE001AF0EE6F
:100A6000480AB0EE680A012002F08AFD204600F034
:100A70001DFFB7EE002AF6EE001AB7EE001AF0EEF0
:100A8000480AB6EE000A032002F0F0FD204600F00E
:100A90000DFFB7EE002AF6EE001AB7EE001AF0EEE0
:100AA000480A9FED1F0A022002F0E0FD204600F0F8
:100AB000FDFEB7EE002AF6EE001AB7EE001ADFEDE3
:100AC000190A9FED190A022002F0D0FD204600F01D
:100AD000EDFEB7EE002AF6EE001AB7EE001AF0EEC1
:100AE000480AB8EE0C0A032002F0C0FD204600F0D0
:100AF000DDFEF0EE480AB0EE680ABDEC028BB7EE00
:100B0000002ABDE81040F6EE001AB7EE001A0120E8
:100B100002F036BDCDCC4C3EC3F54840CDCC0CC028
:100B20009A99A9C00AD7233C9A99D9BF7047000067
:100B30002DE9F04106AC94E8E050174C206000200D
:100B40006060A060E0600820206121766276A37674
:100B5000E5762677677784F81EC084F81FE004F1F5
:100B60001802012314460C490C4800F089F80028AB
:100B70000FD0022322460849084800F081F80028D7
:100B800007D02246BDE8F04104230349034800F0A2
:100B900077B8BDE8F0810000744700201C030020F6
:100BA0002DE9F04106AC94E8E050174C206000209D
:100BB0006060A060E0600820206121766276A37604
:100BC000E5762677677784F81EC084F81FE004F185
:100BD0001802012314460C490C4800F051F8002873
:100BE0000FD0022322460849084800F049F800289F
:100BF00007D02246BDE8F04104230349034800F032
:100C00003FB8BDE8F0810000944700204403002075
:100C100072B6FEE710B558B1084C491E0BD310F858
:100C2000013B5340DBB234F8133083EA1222F4E77D
:100C30004FF6FF7010BD104610BD00008052000836
:100C400010B5054C04E000BF10F8013B5340E25CD6
:100C5000491EF9D2104610BD8051000890F820209E
:100C6000012A07D0022A05D0416A41F4802141625D
:100C700001207047006842690A43426100207047C2
:100C8000F0B590F820500468A468012D05D0022D1D
:100C900003D0416A41F480215DE014F0406F01D13E
:100CA000E50055D5C4F30164022C03D9416A41F42F
:100CB000000150E00125A5401D608D684FF4C07310
:100CC0009DB1CE6835434E6845EAC605066803EB1C
:100CD0000417F5514FF4C275076805EB04150E694A
:100CE0007E51097D012905D009E00E88CD6845EACD
:100CF0004655EBE701684E5946F480764E5111791E
:100D0000D579567941EA056195792D0445EA06259C
:100D100029434FF4C676056806EB0416A9511178ED
:100D2000D57841EA0561957852782D0445EA02228A
:100D300011434FF4C475026805EB04155151006866
:100D400003EB0411425842F0010242500020F0BD72
:100D5000416A41F4001141620120F0BD10B590F8E4
:100D60002020012A07D0022A05D0416A41F48021BF
:100D70004162012010BD3B48D0F8002242F0010240
:100D8000C0F80022D0F8002222F47C52C0F80022E1
:100D9000D0F800224B6A42EA0322C0F800220A7D02
:100DA00002F01F0301229A40D0F81C329343C0F88E
:100DB0001C32CB69B3B9D0F80C329343C0F80C3273
:100DC0008C894B6864F31F434C6900EBC404C4F87E
:100DD00040320C890B6864F31F434C6900EBC40478
:100DE000C4F84432CB69012B16D1D0F80C3213432E
:100DF000C0F80C320C884B6864F31F434C6900EB5D
:100E0000C404C4F840320C89CB6864F31F434C69B6
:100E100000EBC404C4F844328B69002BD0F80432D0
:100E20000ED01343C0F804320B69002BD0F81432F3
:100E300008D01343C0F81432096A012904D008E02D
:100E40009343EFE79343F5E7D0F81C121143C0F842
:100E50001C12D0F8001221F00101C0F8001200208D
:100E600010BD000000640040704730B590F820408D
:100E7000012C05D0022C03D0416A41F480215DE0B1
:100E80000468002955D02469A40754D04FF4D874BD
:100E9000056804EB01142D5915F0040595600568EB
:100EA0002D594ED0ED08556005682C5904F0020408
:100EB000D4604FF4DA74056804EB01142D5905F081
:100EC0000F05156105682D59C5F30725956105685E
:100ED0002C59240C54614FF4DC72046802EB0112AB
:100EE000A4581C700468A458240A5C700468A458B0
:100EF000240C9C700468A258120EDA704FF4DE7253
:100F0000046802EB0112A4581C710468A458240A56
:100F10005C710468A458240C9C710468A258120ED9
:100F2000DA71006881B1016941F02001016100209E
:100F300030BDE468A8E7416A41F400114162012034
:100F400030BD6D0D1560AFE7C16841F02001C16093
:100F5000EDE72DE9F05F0546006800244669D0F80A
:100F600004908768D0F80CB0D0F810A0D0F81880A2
:100F7000F10748D0F90714D001218160B80703D5E3
:100F8000284600F0C0FA0CE0780702D54FF4006460
:100F900007E0380702D54FF4805402E0284600F0FD
:100FA000B1FAF80516D529684FF480708860B80545
:100FB00003D5284600F0A9FA0CE0780502D544F4E0
:100FC000005407E0380502D544F4804402E0284686
:100FD00000F09AFAF80316D529684FF4803088603B
:100FE000B80303D5284600F092FA0CE0780302D546
:100FF00044F4004407E0380302D544F4803402E0AE
:10100000284600F083FA300707D55FEACB6004D5A5
:101010002968102044F40074C86070074FF0080776
:1010200007D55FEA0B7004D52868C760284600F032
:10103000A9F9B00706D52868C068800702D02846FD
:1010400000F0A2F9700607D55FEACA6004D52968E6
:10105000102044F480640861B00607D55FEA0A7086
:1010600004D528680761284600F01CFAF00606D56A
:1010700028680069800702D0284600F014FAB003FF
:1010800008D55FEAC96005D5296810204860284660
:1010900000F00AFAF00307D55FEA097004D5286862
:1010A0004760284600F034FA300446D55FEA4970BC
:1010B00040D5F00504D55FEAC87001D044F00104C2
:1010C000B00504D55FEA887001D544F002047005CC
:1010D00004D55FEA487001D544F00404300529D5F1
:1010E00018F0700F26D008F07000402815D006DCEC
:1010F000102809D020280AD0302816D10AE050281C
:101100000ED0602811D10EE044F008040DE044F048
:1011100010040AE044F0200407E044F0400404E036
:1011200044F0800401E044F480742868816921F06F
:1011300070018161296804204860002C05D0686A2C
:10114000204368622846FFF78FFEBDE8F09F70B528
:10115000040003D094F8200010B104E0012070BD19
:10116000204600F081F82068016841F0010101602B
:1011700000F0ACFC0546052604E000F0A7FC401B8F
:101180000A2811D820684068C007F6D02068016896
:1011900021F00201016000F099FC05460BE000F02F
:1011A00095FC401B0A2806D9606A40F40030606252
:1011B00084F82060D2E7206840688007EFD4207E62
:1011C0000128206801683DD021F080010160607E27
:1011D00001282068016838D021F040010160A07E1C
:1011E00001282068016833D021F020010160E07EF1
:1011F0000128206801682ED041F010010160207F95
:1012000001282068016829D021F008010160607F71
:1012100001282068016824D021F004010160D4E98C
:1012200002010843D4E90412114308436168491ECE
:1012300008432168C86100206062012084F8200012
:10124000002070BD41F08001C0E741F04001C5E7DA
:1012500041F02001CAE721F01001CFE741F0080179
:10126000D4E741F00401D9E7F0B587B00446142172
:101270006846FFF747F93E4B3E48DFF8F0E0196853
:10128000D4F800C03B4A0325022609271030002469
:10129000491CF4452AD11960012907D1016841F0A0
:1012A00000710160006800F000700590106840F067
:1012B000080010601068CDE9005600F00800CDE984
:1012C000047069462C48CDE9024500F001FB00227C
:1012D0000521132000F08CFE132000F07BFE00227D
:1012E0000521142000F084FE14203AE0DFF88CE0A1
:1012F000F44538D1D0F800C04CF0806CC0F800C084
:10130000D0F800C001290CF0806CCDF814C0196031
:1013100007D1016841F000710160006800F00070C1
:101320000590106840F002001060106802AB00F0F9
:10133000020005906020CDE9000683E8B000694610
:101340000F4800F0C5FA002205213F2000F050FEB2
:101350003F2000F03FFE00220521402000F048FE23
:10136000402000F037FE07B0F0BD000000640040F0
:101370001000002030380240000C0240006800409D
:10138000000402407047000070B5054600684249FD
:10139000424C884204F11C063BD1334622460021D0
:1013A0002846FFF762FDA0BB207F012804D0022859
:1013B00008D003280CD028E0B4F81D00374A40BA02
:1013C00024320AE0B4F81D00344A40BA3C3204E04A
:1013D000B4F81D00314A40BA5432F2EE090A1060E6
:1013E000E17FBAEE090A0B0194F8201043EA1113C9
:1013F000536094F8213001F00F0143EA012191601C
:10140000102103F067FB82ED030A02212846FFF753
:1014100025FC2349286888423CD133461F4A0021D5
:101420002846FFF722FD002834D1207F012804D070
:10143000022808D003280CD026E034F81D0F174AE4
:1014400040BA6C320AE034F81D0F144A40BA8432B4
:1014500004E034F81D0F114A40BA9C32F2EE090A3A
:101460001060A178BAEE090A0B01E17843EA111382
:101470005360237901F00F0143EA012191601021AB
:1014800003F028FB82ED030A2846BDE870400221E4
:10149000FFF7E4BB70BD0000006400404C44002036
:1014A00000680040704770477047000070B5044600
:1014B00090F82000012804D0606A40F400206062A7
:1014C00018E0022084F820002068016821F0010162
:1014D000016000F0FBFA05460EE000BF00F0F6FAEE
:1014E000401B0A2808D9606A40F400306062052079
:1014F00084F82000012070BD20684068C007EDD14D
:10150000606270BD704770477047704770477047A2
:1015100070472DE9F0410446876D00F0D7FA064682
:1015200094F835000025022806D08020606584F8F4
:1015300034500120BDE8F0812068016821F01601D7
:1015400001602068416921F080014161206C08B987
:10155000A06C20B12068016821F0080101602068BA
:10156000016821F0010101600CE000F0AFFA801B7E
:10157000052807D920206065032084F8350084F809
:101580003450D7E720680068C007EED194F85C10AB
:101590003F208840B860012084F8350084F834503A
:1015A0000020C7E790F83510022903D0802141655B
:1015B00001207047052180F835100068016821F08E
:1015C00001010160002070472DE9F84304464FF007
:1015D0000009CDF8009063484FF41651A56D0068DE
:1015E000B0FBF1F72E6894F85C10082000FA01F1C6
:1015F00031420FD021680A6852070BD50A6822F0E1
:1016000004020A6094F85C108840A860606D40F0A5
:101610000100606594F85C104FF0010808FA01F0D1
:10162000304208D021684969090604D5A860606D78
:1016300040F00200606594F85C100420884030425D
:1016400008D021680968890704D5A860606D40F05A
:101650000400606594F85C1010208840304218D077
:1016600021680968090714D5A86020680168490342
:1016700004D50068000308D5A16C07E00168C9051E
:1016800003D4016821F008010160216C09B12046F2
:10169000884794F85C1020208840304231D021687F
:1016A0000968C9062DD5A86094F83500052820687A
:1016B000016806D0490347D5006800031DD4616C5A
:1016C0001CE021F0160101602068416921F08001D1
:1016D0004161206C08B9A06C20B12068016821F03C
:1016E0000801016094F85C103F208840A86084F8ED
:1016F000358084F83490216D1FE0E16B09B12046FC
:101700008847606D00282BD0606DC00714D005207D
:1017100084F835002068016821F00101016000981B
:10172000401C0090B84203D820680068C007F6D17A
:1017300084F8358084F83490E16C002910D001B031
:101740002046BDE8F04308470168C905D5D40168C3
:1017500021F01001016084F8358084F83490CCE7E2
:10176000BDE8F883200000202DE9F041044600F098
:10177000ADF906465CB1022084F83500002584F8F6
:1017800034502068016821F0010101600DE0012062
:10179000BDE8F08100F09AF9801B052805D92020CA
:1017A0006065032084F83500F2E720680068C00710
:1017B000F0D12268116820480140D4E901031843A0
:1017C000D4E903363343184363691843A3691843C4
:1017D000E3691843236A18430843616A042903D163
:1017E000D4E90B1319430843106020684069666A06
:1017F00020F0070130460E43012704280CD1A06ACF
:101800000643E06A40B12046FFF78EF820B1402041
:10181000606584F83570BAE7206846612046FFF7B6
:101820006FF894F85C203F2191408160656584F8F1
:1018300035700020ACE700003F8010F02DE9F0414A
:101840000446866D90F83400002501280DD0012053
:1018500084F8340094F835700020012F07D084F804
:10186000340002252846BDE8F0810220FBE702276C
:1018700084F8357060652046FFF780F894F85C10B6
:101880003F208840B0602068016841F01601016087
:10189000206C20B12068016841F0080101602068D7
:1018A000016841F001010160DCE7000070B5044609
:1018B00000F00CF90546601C02D00448007804448E
:1018C00000F004F9401BA042FAD370BD14000020C0
:1018D0002DE9F84FDFF8BCA10022012503264FF0C7
:1018E0000F090AF1040BAAF1040E00BF0B6805FAF8
:1018F00002F42340A34270D10F7907F00307012FB0
:1019000001D0022F16D187684FEA420806FA08FC78
:1019100027EA0C07D1F80CC00CFA08FC4CEA070CBB
:10192000C0F808C04768A7430C79C4F3001494407A
:101930003C4344600C79E443A4070AD0C4684FEAEE
:10194000420C06FA0CF7BC438F6807FA0CF72743E2
:10195000C7600C7904F00304022C12D1D40800EB08
:10196000840CDCF820405707FF0E09FA07F824EA38
:101970000804D1F8108008FA07F848EA0408CCF8FF
:10198000208004684FEA420C06FA0CF7BC430F793A
:1019900007F0030707FA0CF7274307604C6814F4B5
:1019A000403F70D03C4C276847F48047276024684C
:1019B00022F0030704F480440094384C07EB040C35
:1019C000DCF8084897074FEA177809FA08F7BC438C
:1019D000334FB84202D1002724E054E0314FB842DF
:1019E00001D101271EE0304FB84201D1022719E092
:1019F0002E4FB84201D1032714E02D4FB84201D138
:101A000004270FE02B4FB84201D105270AE02A4FE7
:101A1000B84201D1062705E0284FB84201D1072777
:101A200000E0082707FA08F72743CCF80878DAF827
:101A300000405746D1F804C09C435FEACC2C00D547
:101A40001C433C60DBF800405F46D1F804C09C4377
:101A50005FEA8C2C00D51C433C60DEF800407746E2
:101A6000D1F804C09C435FEA8C3C00D51C433C6029
:101A7000084F083F3C68D1F804C09C435FEACC3C67
:101A800000D51C433C60521C102AFFF42FAFBDE868
:101A9000F88F0000083C014044380240003001400B
:101AA000000002400004024000080240000C024016
:101AB000001002400014024000180240001C0240C6
:101AC0000AB1816170470904FBE7000001488068A2
:101AD000704700001400002070B5040025D094F871
:101AE0003D00002520B984F83C50204600F0B4F9B0
:101AF000242084F83D002068016821F00101016084
:101B00002068016841F4004101602068016821F407
:101B10000041016000F058FB4D4A6168914201D8D4
:101B20004C4900E04C49884201D2012070BD4B492C
:101B30002368B0FBF1F15E6826F03F060E435E605D
:101B40006368934206D94FF4967359434FF47A73FE
:101B5000B1FBF3F12368491C1E6A26F03F063143AE
:101B600019626168914210D84900401EB0FBF1F241
:101B7000521CC2F30B02042A01D2042022E0B0FB63
:101B8000F1F0401CC0F30B001CE0A268F2B301EBC3
:101B9000C10303EB0116431EB3FBF6F35B1C43F4D6
:101BA00080431B0549D092B301EBC10202EB011146
:101BB000401EB0FBF1F0401CC0F30B0040F480402D
:101BC00040F400402168CA694CF6FF739A43104301
:101BD000C861D4E9071001432068026822F0C002FE
:101BE00011430160D4E9030101432068826848F28F
:101BF000FF339A4311438160D4E90501084321680A
:101C0000CA6822F0FF021043C86001E00EE016E04F
:101C10002068016841F0010101602564202084F8FA
:101C20003D00256384F83E50002070BD01EB410665
:101C3000431EB3FBF6F35B1CB3E70120C2E701EBE5
:101C40004101401EB0FBF1F0401CC0F30B00B7E7B0
:101C5000A086010080841E0000093D0040420F0064
:101C60002DE9FF4F83B09A46DDE91197934604466C
:101C7000DDF84080FFF72AFF054694F83D00202854
:101C800070D11923012271492046009501F0CEFA46
:101C90000028F5D194F83C00012863D0012084F895
:101CA0003C0020680168C90703D1016841F00101C7
:101CB00001602068016821F400610160222084F83D
:101CC0003D00402084F83E0000262664C4F82480AD
:101CD000A4F82A90608D20855D48E062CDE900750A
:101CE00053465A462046049901F022FA00287CD136
:101CF000208DD0B1012821D00228206824D041694C
:101D000080690090208D032869D801282BD0514983
:101D100002283B464FF00002009559D088462046E5
:101D200001F084FA002860D13CE0206841698169B3
:101D30000091016841F40071016077E0206801685A
:101D400021F480610160F0E7016821F480610160A5
:101D50002068016841F40061016020684169806980
:101D6000009063E06FE02A463946204601F0DDFA34
:101D700098BB20680069616A08704EE020680168BD
:101D800041F40071016020680069616A0870606A4E
:101D9000401C6062218D491E2185618D491E61852F
:101DA000216838E02068016821F4806101602068C2
:101DB0000069616A0870606A401C6062208D401E84
:101DC0002085608D401E60853B460022414600957F
:101DD000204601F02BFA00B9D0E706E0FFE72A46DB
:101DE0003946204601F0A1FA18B1012007B0BDE83C
:101DF000F08F20680069616A0870606A401C606248
:101E0000218D491E2185618D491E618521684A69A0
:101E1000D24352070AD409690170606A401C6062AB
:101E2000208D401E2085608D401E6085208D0028FD
:101E30007FF468AF202084F83D0084F83E6084F889
:101E40003C600020D2E70220D0E700000200100032
:101E50000000FFFF0400010010B586B00446142105
:101E60006846FEF74FFB1349206888421FD112488D
:101E70000021026842F0200202600068122200F095
:101E8000200005900320CDE90210CDE900020420D6
:101E9000049069460948FFF71BFD074810300168A8
:101EA00041F480010160006800F48000059006B0F4
:101EB00010BD0000005800403038024000140240BD
:101EC0000248816802781144816070471400002044
:101ED0000B4810B5016841F400710160016841F4DC
:101EE00080610160016841F480710160032000F0AD
:101EF0009FF80F2000F006F800F050F8002010BD09
:101F0000003C024030B505461F4887B000240168F8
:101F100041F002010160006806A900F00200009093
:101F200001A800F031F90498A8B100F04DF9400083
:101F30001649174AB0FBF1F11648491E026040F2FB
:101F4000E732C0E90324C0E90114846100F0B8FB62
:101F5000040003D015E000F037F9E9E70D4800F080
:101F6000DDFB04000DD11D2000F034F8102D07D248
:101F7000002229461D2000F03BF80748056000E0DC
:101F8000012407B0204630BD4038024040420F00D7
:101F90000004004014070020180000200C4882B004
:101FA000016841F480410160006800F480400090C5
:101FB0000748001F016841F080510160006800225D
:101FC00000F0805000900F21901E02B000F010B879
:101FD00044380240002809DB00F01F020121914033
:101FE0004009800000F1E020C0F8001170470000B7
:101FF000F0B40E4B1B680C46C3F30223C3F1070574
:10200000042D00D90425191D072901D2002300E061
:10201000DB1E012606FA05F1491E214099409E402B
:10202000761E16403143F0BC02F031BA0CED00E0F0
:10203000064900F0070208684FF6FF03184040EA1F
:102040000220034A10430860704700000CED00E0D6
:102050000000FA052DE9F0470E46050065D0DFF8CF
:102060001481D8F80000F7B200F00700B04207D2A0
:1020700088F80070D8F8000000F00700B04254D192
:1020800028683D4C810712D5400703D5206840F4ED
:10209000E05020602878000703D5206840F46040B5
:1020A00020602068A96820F0F000084320602878AC
:1020B000C0072DD0304968680839012812D002289D
:1020C00013D0032811D00968890700292DDA216867
:1020D00021F0030101432160FFF7F8FC814641F242
:1020E000883A0EE009688903EFE709688901ECE79F
:1020F000FFF7ECFCA0EB0901514502D90320BDE834
:10210000F0872068696800F00C00B0EB810FEFD118
:10211000D8F80010404601F00701B14207D9077016
:10212000006800F00700B04201D00120E7E72878FE
:10213000400705D52068E96820F4E0500843206096
:102140002878000706D52068296920F4604040EA15
:10215000C100206000F058F82168084AC1F303115B
:10216000515CC8400649086006480068FFF7CAFE8F
:102170000020C4E7003C02400838024068510008D3
:1021800020000020180000200F2202600C4A136873
:1021900003F003034360136803F0F00383601368E4
:1021A00003F4E053C36012684FF4E05303EAD20231
:1021B00002610448006800F00700086070470000F2
:1021C00008380240003C024004480549006809689C
:1021D000044AC1F38221515CC840704720000020AE
:1021E0000838024078510008044805490068096829
:1021F000044AC1F34231515CC840704720000020BE
:102200000838024078510008154810B5006810F0F1
:102210000C02144813D01449042A0FD0082A0ED1F6
:102220000F4C241F2268236802F03F025B0207D58F
:102230002068C0F38810A0FB010106E0084610BD2D
:102240002168C1F38811A1FB00010023FEF76CF89F
:102250002168C1F30141491C4900B0FBF1F010BDF8
:10226000083802400024F400001BB7002DE9F84FA5
:1022700004006ED02078DFF84C93C007A9F1040564
:102280004AD009F104000168C1F38101012908D095
:102290000068C0F3810002280AD1D9F8000040028A
:1022A00006D52868800337D560680028E1D033E080
:1022B0006068B0F5803F10D0B0F5A02F286810D02E
:1022C00020F480302860286820F48020286060682E
:1022D000A8B1FFF7FBFB06460DE0286840F480300C
:1022E000F4E740F480202860F7E700BFFFF7EEFB3B
:1022F000801B642873D828688003F7D50CE0FFF7AB
:10230000E5FB064605E000BFFFF7E0FB801B642805
:10231000F0D828688003F7D42078DFF8AC828007F3
:102320004FF0000A3ED5A748001D016811F00C0FC0
:1023300008D00068C0F3810002280BD1D9F8000052
:10234000400207D42868800716D5E068012800D12C
:1023500012E033E1E068B8B10120C8F80000FFF7EF
:10236000B5FB064605E000BFFFF7B0FB801B022867
:10237000C0D828688007F7D52868216920F0F800C0
:1023800040EAC10028600DE0C8F800A0FFF79EFBFE
:10239000064604E0FFF79AFB801B02281FD8286836
:1023A0008007F7D42078000722D5864F87486169D7
:1023B000703771B101210160FFF788FB064604E028
:1023C000FFF784FB801B022809D838688007F7D5FF
:1023D0000EE0C0F800A0FFF779FB064605E082E0BA
:1023E000FFF774FB801B02287DD838688007F7D47C
:1023F0002078400768D5DFF8CCB100270BF13C0B03
:10240000DBF80000C0000BD4DBF8001041F0805175
:10241000CBF80010DBF80000012700F0805000909E
:102420006B4E3068C00510D4306840F48070306066
:10243000FFF74CFB009005E0FFF748FB0099401ABE
:10244000022850D83068C005F6D55E4EA0686C36BC
:1024500001280FD00528306810D020F0010030602E
:10246000306820F004003060A068B8B1FFF72EFBA0
:1024700000900FE0306840F00100F4E740F0040005
:102480003060F7E7FFF722FB0099411A41F28830EC
:10249000814266D830688007F4D50EE0FFF716FB5E
:1024A000009007E0FFF712FB0099411A41F28830D3
:1024B000814256D830688007F4D42FB1DBF8001081
:1024C00021F08051CBF80010A069C8B33D49091D27
:1024D0000968C1F3810102294AD00228504607D079
:1024E000C8F8600000E03CE0FFF7F0FA04463BE08B
:1024F0004746C8F86000FFF7E9FA064605E000BF66
:10250000FFF7E4FA801B02282BD828688001F7D453
:10251000D4E907010843A16A2E4A490802EB0141A8
:10252000626A41EA8211084394F82C1040EA016182
:10253000C9F8001001203866FFF7C8FA044606E023
:102540003EE000BFFFF7C2FA001B022809D8286846
:102550008001F7D534E000BFFFF7B8FA001B02286E
:1025600002D90320BDE8F88F28688001F4D427E061
:102570000128F7D0D9F80000E26900F48001914207
:102580001CD1226A00F03F01914217D147F6C07179
:10259000626A0140B1EB821F10D1A26A4FF0FF3393
:1025A00000F4403103EB5202B1EB024F06D194F834
:1025B0002C1000F07060B0EB016F01D00120D1E76A
:1025C0000020CFE70438024000004742800E474217
:1025D000007000400000FFFF7047704710B590F892
:1025E0003C20012A22D0012280F83C20CA688C6855
:1025F00022F4407222434C6822F4806222430C6829
:1026000022F4006222430C6922F4805222434C6976
:1026100022F400522243C969002322F480420A4373
:1026200001684A6480F83C30002010BD022010BDD3
:1026300070B590F83C20012A32D0012480F83C404B
:10264000022280F83D2003685A689D6822F07006D7
:102650000A6832435A60134B02689A4214D0B2F1AE
:10266000804F11D0104B9A420ED0104B9A420BD093
:102670000F4B9A4208D00F4B9A4205D00E4B9A420C
:1026800002D00E4B9A4204D1496825F080031943C9
:10269000916080F83D40002180F83C10084670BDF4
:1026A000022070BD0000014000040040000800400E
:1026B000000C0040000401400040014000180040B0
:1026C00010B5040003D094F83D0010B107E00120DC
:1026D00010BD002084F83C00204600F01EF80220C7
:1026E00084F83D00211D206801F0E0FA012084F803
:1026F000460084F83E0084F83F0084F8400084F8E7
:10270000410084F8420084F8430084F8440084F8CF
:10271000450084F83D00002010BD704790F83D1042
:10272000012901D001207047022180F83D10016885
:10273000CA6842F00102CA6000681149884214D098
:10274000B0F1804F11D00F4988420ED00E49884217
:102750000BD00E49884208D00D49884205D00D495A
:10276000884202D00C49884204D1816801F00701F7
:10277000062903D0016841F0010101600020704783
:10278000000001400004004000080040000C004030
:10279000000401400040014000180040704770B53F
:1027A0000446006801694FF00005C943890715D444
:1027B000C168C943890711D4E91E0161012020774E
:1027C000206880698007204602D0FFF7E7FF04E019
:1027D00000F0C2F8204600F067F92577206801690B
:1027E000C943490717D4C168C943490713D46FF0D7
:1027F00004010161022020772068806910F4407F85
:10280000204602D0FFF7CAFF04E000F0A5F82046FA
:1028100000F04AF9257720680169C943090716D4F1
:10282000C168C943090712D46FF00801016104208F
:1028300020772068C0698007204602D0FFF7AEFFEE
:1028400004E000F089F8204600F02EF92577206892
:102850000169C943C90617D4C168C943C90613D45D
:102860006FF010010161082020772068C06910F422
:10287000407F204602D0FFF791FF04E000F06CF8A3
:10288000204600F011F9257720680169C943C9077E
:1028900008D1C168C943C90704D1891E0161204616
:1028A00000F004F920680169C943090609D4C16828
:1028B000C943090605D46FF0800101612046FFF786
:1028C0008BFE20680169C943490609D4C168C94320
:1028D000490605D46FF040010161204600F0F0F890
:1028E00020680169C94389060BD4C168C9438906B8
:1028F00007D46FF0200101612046BDE87040FFF76A
:102900006CBE70BD10B586B0044614216846FDF754
:10291000F9FD0E492068884216D10D480021026851
:1029200042F001020260006800F0010005904FF4DF
:10293000807000900220CDE901010120CDE9031053
:1029400069460448FEF7C4FF06B010BD0000014010
:102950003038024000000240704770B5044690F8DD
:102960003C0000260D4601280FD0012084F83C00D1
:102970006AB1042A1DD0082A2FD00C2A3FD0012684
:10298000002084F83C00304670BD022070BD2068F5
:1029900001F0F0F92068816941F008018161206847
:1029A000816921F004018161206881692A691143EC
:1029B00011E0206801F00EFA2068816941F400619D
:1029C00081612068816921F4806181612068816969
:1029D0002A6941EA02218161D2E7206801F030FAD8
:1029E0002068C16941F00801C1612068C16921F016
:1029F0000401C1612068C1692A69114311E020689E
:102A000001F052FA2068C16941F40061C161206897
:102A1000C16921F48061C1612068C1692A6941EA04
:102A20000221C161ACE710B5040003D094F83D0069
:102A300010B107E0012010BD002084F83C002046C2
:102A400000F01EF8022084F83D00211D206801F0EE
:102A50002DF9012084F8460084F83E0084F83F00F8
:102A600084F8400084F8410084F8420084F8430070
:102A700084F8440084F8450084F83D00002010BD2F
:102A800008B500680649884208D10648016841F047
:102A900001010160006800F00100009008BD000025
:102AA00000000140443802407047000000680349BC
:102AB000884201D1FFF704BA7047000000040040CB
:102AC0007047704770470000F8B501680446086811
:102AD000CA684B6910F00F0F4FF0000559D003F092
:102AE000010602F49077374365D0C10705D0D105C0
:102AF00003D5216C41F001012164410705D5D907B7
:102B000003D0216C41F002012164810705D5D9076A
:102B100003D0216C41F004012164010707D502F0C4
:102B20002001314303D0216C41F008012164216C64
:102B300000293AD0800604D5900602D5204601F03F
:102B400063FA20684069216CC0F38010090700D443
:102B500060B3204601F023FA20684069400621D581
:102B60002068143050E8001F21F0400140E80012B6
:102B7000002AF5D1A06BA8B16C490165A06BFEF7E6
:102B800011FD002811D0A06B016D01B0BDE8F0402F
:102B9000084783060FD593060DD52046BDE8F840BB
:102BA00001F032BA2046FFF78DFFF8BD2046FFF74F
:102BB00089FF2564F8BD266B2023012E79D1C60636
:102BC00077D5D60675D508684868009048694006EC
:102BD00040D5A16B086840680004000CEAD0A28DC3
:102BE0008242E7D9E085C869B0F5807F2DD02068A2
:102BF0000C3050E8001F21F4807140E80012002AD8
:102C0000F5D12068143050E8001F21F0010140E8A0
:102C10000012002AF5D12068143050E8001F21F07E
:102C2000400140E80012002AF5D184F83E302563C7
:102C300020680C3050E8001F21F0100140E800121D
:102C4000002AF5D1A06BFEF764FCA08DE18D401A3F
:102C500081B229E0A08DE18D401A81B2E08D00287B
:102C6000A8D00029A6D020680C3050E8002F22F40C
:102C7000907240E80026002EF5D12068143050E80C
:102C8000002F22F0010240E80026002EF5D184F842
:102C90003E30256320680C3050E8002F22F01002EF
:102CA00040E80023002BF5D12046FFF70AFFF8BDCE
:102CB000FFE705062BD5150629D594F83D002128F8
:102CC000F5D1A068B0F5805F01D12069B0B1206A6C
:102CD000411C2162216800784860E08C401E00049D
:102CE000000CE084E3D12068C16821F08001C1605C
:102CF0002068C16841F04001C160D8E7206A0088BF
:102D0000C0F308004860206A801C2062E5E74006A6
:102D1000CDD55006CBD5CA68204622F04002CA6005
:102D200084F83D3000F0EAF9C1E70000F93E000800
:102D300070B5040004D094F83D00002510B106E001
:102D4000012070BD84F83C50204600F023F8242078
:102D500084F83D002068C16821F40051C16020461C
:102D600001F0B2F92068016921F490410161206805
:102D7000416921F02A0141612068C16841F4005194
:102D8000C1602564202084F83D0084F83E000020C6
:102D900070BD00002DE9F04F87B00546142168464C
:102DA000FDF7B0FBA648DFF894821438D5F800C0D0
:102DB000A34B022103224027002406154FF0070BE6
:102DC000C44570D1D3F800C04CF0100CC3F800C05B
:102DD0001B6803F010030593036843F002030360CC
:102DE000036803F002030593036843F001030360E3
:102DF0000068884600F0010005908020CDE90008B9
:102E0000CDE902429246D9466946CDF810B08D48C8
:102E1000FEF75EFD7010CDE90008CDE9024A694673
:102E2000CDF810908848FEF753FDDFF824A28749BB
:102E300050464FF00068CAF80010C0E90184C0E9AC
:102E40000346CAF81440CAF81840CAF81C40CAF829
:102E50002040B146CAF82440FEF786FC08B1FDF7D1
:102E6000D7FE7B4EC5F838A06036CAF83850C6E9A0
:102E70000274C6E90494B4617448F4613462783031
:102E80007462C6E900083046FEF76EFC08B1FDF733
:102E9000BFFE6E63002205212520B563FFF7A8F869
:102EA000252064E0FFE7DFF8AC81C44564D1644BC2
:102EB000A1461B1FD3F800C04CF4802CC3F800C0FF
:102EC0001B6803F480230593036843F00403036045
:102ED000006800F0040005904FF440608DE8130096
:102EE000CDE9032B69465C48FEF7F2FCDFF8608110
:102EF0005A4908F1C00840464FF0006AC8F800106F
:102F0000C0E901A4C0E90346C8F81440C8F8184055
:102F1000C8F81C40C8F82040C8F82440FEF724FC3C
:102F200008B1FDF775FE4E4CC5F838804B48C8F81F
:102F300038503030A760C4E9000AC4E90396C4F8E9
:102F40001490C4F81890C4F81C90C4F8209020463F
:102F5000C4F82490FEF708FC08B1FDF759FE6C6335
:102F6000002205212720A563FFF742F82720FFF75D
:102F700031F807B0BDE8F08FDFF8E880C445F8D13C
:102F8000D3F800C04CF0200CC3F800C01B6803F05D
:102F900020030593036843F040030360006800F0DA
:102FA000400005904FF484408DE813000820CDE9DF
:102FB000032069462C48FEF78BFCDFF8A4902349D8
:102FC00009F16009183948464FF0206AC9F8001025
:102FD000C0E901A4C0E90346C9F81440C9F8184083
:102FE000C9F81C40C9F82040B046C9F82440FEF793
:102FF000BBFB08B1FDF70CFE194EC5F83890C03682
:10300000C9F83850C6E90274C6E90484B4610F48AF
:10301000F461346260307462C6E9000A3046FEF73B
:10302000A3FB08B1FDF7F4FD6E63002205214720E4
:10303000B563FEF7DDFF472099E70000001001406F
:103040004438024000040240000002404064024054
:10305000D4040020004800400008024028600240DC
:10306000F4050020001401400018024070470000E1
:1030700070B5044690F83D00202836D191B38AB34C
:1030800094F83C00012830D0012084F83C002162F3
:10309000A284E28400252564212084F83D00636B2E
:1030A0001348D863636B13481864636B1248D86481
:1030B000606B134605652668606B321DFEF7BEFB2C
:1030C00021686FF04000086084F83C50206814309C
:1030D00050E8001F41F0800140E80012002AF5D1BD
:1030E000002070BDFFE70120FBE70220F9E70000A8
:1030F000533F0008953F0008093F0008704770479C
:10310000FEE701684A69D24352050FD46FF480622A
:103110004A61002140F8301F202242738173026906
:1031200042F00402026101730120704700207047E1
:103130002DE9F84F0446006889460B9D01689846C2
:10314000174641F4806101602068016841F4807194
:10315000016000954FF0011B0022594620460A9B52
:1031600000F064F84FF4007A40B120680068C005B0
:1031700001D5C4F840A00320BDE8F88F216809F00C
:10318000FE0008612B46284920460A9A00F082F882
:10319000F0BB20684169806900902A4620460A9960
:1031A00000F0F6F840B1206C04283AD1206801689C
:1031B00041F40071016034E0FEB2B8F1010F09D0B2
:1031C0002168380A08612A4620460A9900F0E0F88A
:1031D0000028E8D1206806612A4620460A9900F0B6
:1031E000D7F80028DFD12068016841F480710160C0
:1031F00000950022594620460A9B00F017F8002847
:10320000B3D1216809F0FF0040F00100086100E03F
:1032100007E02B46044920460A9A00F03BF80028B4
:10322000AAD00120A8E70000020001002DE9F04724
:103230001E4690460D460446C1F30747DDF8209030
:1032400008E0701C06D0FEF741FCA0EB0900B0427C
:103250000FD876B12068012F18D0806925EA0000C8
:103260000004000C14D000214145EAD00020BDE844
:10327000F087002044F8300F20216173A07321698A
:1032800041F02001216120730120F0E74069E5E76A
:103290000121E9E72DE9F0479A4691460E4604469A
:1032A00000254FF02008C1F3074725E0206840695A
:1032B000C043400514D42068016841F400710160E6
:1032C00021686FF480604861256384F83D8084F84C
:1032D0003E50206C40F00400206484F83C501FE015
:1032E000B9F1FF3F08D0FEF7F1FBA0EB0A01494519
:1032F0000CD8B9F1000F09D02068012F13D08069D4
:1033000026EA00000004000C0BD0CFE744F8305F41
:1033100084F80D80A573206940F02000206125739A
:103320000120BDE8F0874069EAE72DE9F04100257A
:1033300090460E460446202717E04069C043C00669
:103340000CD454F8301B6FF01000486144F8105949
:103350006777A577206A2062257717E0FEF7B6FB2E
:10336000A0EB0800B04208D83EB120684169C943CB
:103370004906E2D40020BDE8F08144F8305F67736D
:10338000A573206940F02000206125730120F2E739
:1033900070B516460D4604460DE02046FFF7B1FE17
:1033A00008B1012070BD681C05D0FEF78FFB801BA3
:1033B000A84207D835B120684069C0430006ECD464
:1033C000002070BD002044F8300F20216173A073ED
:1033D000216941F0200121612073E2E72DE9F047E6
:1033E0000E4607460025DFF89491C0E0785DA528D9
:1033F00073D178190446052101F036F800286CD005
:103400006078A17840EA012805EB08000930B04255
:1034100046D8204608F1090101F008F800285CD0E0
:103420006079A17940EA012040F20221A0F2022253
:10343000884261D018DCB0F5817F40D00ADC0128D9
:103440001BD0032820D005282BD0A0F58070013890
:1034500022D12DE0B0F5827F38D0A0F580700538FC
:103460003CD0FC2818D140E0092A15D2DFE802F050
:10347000144B525960676E7577000B2080460246E8
:103480003E48E11D8F3805E02020804602463B483B
:10349000E11D8338FCF7BFFF05EB08000930C5B21A
:1034A00065E00D20804602463448E11D6338F1E7AF
:1034B0000420804602463148E11D5638EAE70420E0
:1034C000804602462D48E11D5238E3E7022080463F
:1034D00002462A48E11D4E38DCE746E001208046DE
:1034E00002462648E11D4C38D4E71B2080460246A0
:1034F0002248E11D4B38CDE71020804602461F4888
:10350000E11D3038C6E71020804602461B48E11D09
:103510002038BFE70120804602461848E11D1038D8
:10352000B8E70120804602461448E11D0F38B1E794
:103530000120804602461148E11D0E38AAE7072007
:10354000804602460D48E11D0D38A3E7062080465F
:1035500002460A48E11D801F9CE7042000E0062087
:1035600080460246E11D484694E76D1CEDB2B54227
:10357000FFF43CAFBDE8F04700F002BF5447002025
:1035800070B5344AB0EE413AF0EE602A1060002087
:103590009060D060082010611020B2EE091AFAEE97
:1035A000090A00F0D7FF05460C209FED2B1ADFED2E
:1035B0002B0AB0EE620A00F0CDFFDFED2A2A0446A6
:1035C0000C209FED271AF0EE620AB0EE430A00F0DD
:1035D000C1FF03460C20B1EE041AF0EE620AB0EE11
:1035E000610A00F0B7FF06460C20B3EE021AFBEEAC
:1035F000020AB0EE420A00F0ADFF290A11765576B4
:1036000021099176210141EA1321D17613773109FD
:103610005177310141EA10219177D0770D4A01238A
:10362000183214460B491048FDF72AFB00280FD02A
:103630000223224607490C48FDF722FB002807D049
:103640002246BDE87040042302490748FDF718BB35
:1036500070BD00000C48002000003442000034C25D
:103660000000FA43000000001C03002070B5344A3B
:10367000B0EE413AF0EE602A106000209060D06019
:10368000082010611020B2EE091AFAEE090A00F0C3
:1036900061FF05460C209FED2B1ADFED2B0AB0EEE3
:1036A000620A00F057FFDFED2A2A04460C209FED46
:1036B000271AF0EE620AB0EE430A00F04BFF034611
:1036C0000C20B1EE041AF0EE620AB0EE610A00F0CE
:1036D00041FF06460C20B3EE021AFBEE020AB0EEE2
:1036E000420A00F037FF290A1176557621099176B2
:1036F000210141EA1321D176137731095177310144
:1037000041EA10219177D0770D4A012318321446EF
:103710000B491048FDF7B4FA00280FD002232246C7
:1037200007490C48FDF7ACFA002807D02246BDE84F
:103730007040042302490748FDF7A2BA70BD00009B
:103740002C48002000003442000034C20000FA433C
:1037500000000000440300200F4810B50D4901602F
:103760000321416000214FF410228160C0E903125F
:103770004FF400124261017641768176C17601777D
:103780004177FDF7E4FC002803D0BDE81040FDF7C9
:103790003FBA10BD006400401C0300200F4810B564
:1037A0000D4901600321416000214FF41022816026
:1037B000C0E903124FF4001242610176417681762E
:1037C000C17601774177FDF7C2FC002803D0BDE840
:1037D0001040FDF71DBA10BD0068004044030020F2
:1037E000214808B5016841F480010160016801F4D5
:1037F00080010091016841F400110160006800221D
:1038000000F40010009005210C20FEF7F1FB0C20C5
:10381000FEF7E0FB002205210E20FEF7E9FB0E205B
:10382000FEF7D8FB002205213920FEF7E1FB392005
:10383000FEF7D0FB002205213A20FEF7D9FB3A2003
:10384000FEF7C8FB002205214520FEF7D1FB4520ED
:10385000FEF7C0FB002205214620FEF7C9FBBDE8AC
:1038600008404620FEF7B6BB3038024010B59CB089
:103870001C2216496846FCF713FE0021684600F03A
:10388000B2FE134C11491C2220601C3107A8FCF722
:1038900007FE002107A800F0A6FE0C4960601C226C
:1038A00038310EA8FCF7FCFD00210EA800F09BFEAD
:1038B0000649A0601C22543115A8FCF7F1FD002137
:1038C00015A800F090FEE0601CB010BDF05000089C
:1038D00000000020F0B587B014216846FCF712FE06
:1038E00031480024016841F002010160016801F0E3
:1038F00002010591016841F040010160016801F099
:1039000040010591016841F001010160016801F089
:1039100001010591016841F008010160016801F0B1
:1039200008010591016841F004010160016801F09E
:1039300004010591016841F020010160016801F076
:1039400020010591016841F0800101600068174E77
:1039500000F080004FF4E0550590002229463046E3
:10396000FEF7AEF8124F012211033846FEF7A8F811
:1039700000224FF400513846FEF7A2F800950125C9
:10398000CDE90154694630460394FDF7A1FF4FF499
:1039900040500090CDE90154694638460394FDF744
:1039A00097FF07B0F0BD000030380240001C024015
:1039B000000402400D4810B50B4901600C494160FC
:1039C00000214FF480428160C0E9031241618161AE
:1039D000C1610162FEF780F8002803D0BDE8104005
:1039E000FDF716B910BD0000005800406C03002020
:1039F000801A060010B592B000240F941C2108A86C
:103A00001094FCF77FFD20216846FCF77BFD2048E1
:103A10001E490160A721C0E9011444F61F61C0E9F5
:103A2000031444618461FEF7FEFF08B1FDF7F0F86E
:103A30000F940FA916481094FEF7FAFD08B1FDF790
:103A4000E7F86020CDE908040A940B940C940D94D7
:103A5000002208A90E480E94FEF77FFF08B1FDF77B
:103A6000D7F800944FF40050CDE90440029401943B
:103A70000394694606480794FEF7B0FD08B1FDF7C8
:103A8000C7F80348FEF73EFF12B010BD000001402A
:103A9000C00300200C4810B50A4901604FF4E13121
:103AA0004160002181600C22C160C0E90412816183
:103AB000C161FFF73DF9002803D0BDE81040FDF7D4
:103AC000A7B810BD00100140080400200C4810B534
:103AD0000A4901604FF4E1314160002181600C220C
:103AE000C160C0E904128161C161FFF721F90028BA
:103AF00003D0BDE81040FDF78BB810BD0048004072
:103B00004C0400200C4810B50A4901604FF4E13123
:103B10004160002181600C22C160C0E90412816112
:103B2000C161FFF705F9002803D0BDE81040FDF79B
:103B30006FB810BD0014014090040020FEE7FEE7BE
:103B400010B52DED028B9FED108A00F0B0FCB0B1E6
:103B50000D210C2000F0B2FF00EE100A9FED0C1AB0
:103B6000F8EE400A9FED090A60EE800A80EE818A35
:103B7000B5EEC08AF1EE10FA01D238EE008AB0EE4E
:103B8000480ABDEC028B10BD0000C8430000B443DE
:103B900000F07F45FFF7D4FF012000F018FDF9E7A2
:103BA0004FF47A742046FDF781FEFCF7FBFE2046B9
:103BB000FDF77CFEFCF734FF012000F008FDFBE779
:103BC000012000F004FDFBE7012000F000FDFBE711
:103BD00010B5502080F31188BFF34F8FBFF36F8F64
:103BE00001F0B8F918B104494FF080500860002086
:103BF00080F3118810BD000004ED00E030B593B0F3
:103C000030216846FCF77EFC14210CA8FCF77AFCF6
:103C10001D480025016841F080510160006800F0F6
:103C2000805011901948016841F48041016000689A
:103C3000022400F4804011900120009000040190C3
:103C40008001CDE9064006200890A820CDE90904AE
:103C500004200B906846FEF709FB08B172B6FEE738
:103C60000CA90F2081E831004FF4A0500F904FF4C1
:103C70008050109005210CA8FEF7ECF9002801D027
:103C800072B6FEE713B030BD40380240007000400D
:103C90000248016841F470010160704788ED00E05E
:103CA0000148FEF77CBD000014070020F0B5026853
:103CB000254C264D264E274F274B4FF0804CA042D7
:103CC00009D0604507D0A84205D0B04203D0B84221
:103CD00001D0984204D122F0700E4A6842EA0E02E6
:103CE000A0421BD0604519D0A84217D0B04215D0D1
:103CF000B84213D0984211D0184DA8420ED0184D9A
:103D0000A8420BD0174DA84208D0174DA84205D0A5
:103D1000164DA84202D0164DA84203D122F4407598
:103D2000CA682A434D6922F080022A4302608A68E9
:103D3000C2620A688262A04201D0984201D1096938
:103D4000016301214161F0BD000001400004004019
:103D500000080040000C0040000401400040014009
:103D6000004401400048014000180040001C004091
:103D700000200040F0B5026A22F001020262036AEC
:103D800042688469124E24F073050C682C4323F0BA
:103D900002058B682B430D4DA84201D0B04205D1DE
:103DA00023F00807CB683B4323F00403A84201D06B
:103DB000B04205D14D6922F4407215438A692A4305
:103DC00042608461496841630362F0BD00000140C4
:103DD00000040140F0B5026A22F010020262026A99
:103DE000436884690D6824F4E64444EA05248D6838
:103DF00022F0200242EA05120F4D104EA84201D0D7
:103E0000B04206D1CF6822F0800242EA071222F0C7
:103E10004002A84201D0B04207D14D6923F440636B
:103E200043EA85038D6943EA8503436084614968F9
:103E300081630262F0BD0000000001400004014007
:103E4000F0B5026A22F480720262026A4368C469B1
:103E500022F4007224F073050C68124E2C438D6816
:103E600042EA05220E4DA84201D0B04206D1CF68E9
:103E700022F4006242EA072222F48062A84201D0C2
:103E8000B04207D14D6923F4405343EA05138D69CD
:103E900043EA05134360C4614968C1630262F0BD2F
:103EA000000001400004014030B5026A22F4805253
:103EB0000262046A4268C3690D6823F4E64343EA78
:103EC00005238D6824F4005444EA0534084DA842C3
:103ED00002D0084DA84204D14D6922F4804242EA42
:103EE00085124260C36149680164046230BD00000C
:103EF000000001400004014010B5806B0021C18525
:103F0000C184FEF7DFFD10BD70B5846B2068406989
:103F100094F83D10C0F3C0100025212904D118B138
:103F2000E584204600F062F82068406994F83E106D
:103F3000C0F38010222904D118B1E585204600F095
:103F40002EF8206C40F0100020642046FEF7BAFDE9
:103F500070BD10B50146806B09680968C90516D4A3
:103F60000021C1840168143151E8002F22F0800241
:103F700041E80023002BF5D101680C3151E8002FF6
:103F800042F0400241E80023002BF5D110BDFFF7BD
:103F9000B5F810BD10B5806BFFF7B1F810BD016822
:103FA0000C3151E8002F22F4907241E80023002BDD
:103FB000F5D10168143151E8002F22F0010241E8E7
:103FC0000023002BF5D1016B012909D101680C31C7
:103FD00051E8002F22F0100241E80023002BF5D118
:103FE000202180F83E1000210163704701680C31E8
:103FF00051E8002F22F0C00241E80023002BF5D148
:10400000202180F83D10704708B590F83E10222915
:1040100001D0022008BD82684FF480539A4201D13A
:10402000016921B1816A9A421BD04AB10AE0026853
:10403000816A5268C2F308020A80816A891C08E01A
:10404000026972B10268526802F07F020A70816AE6
:10405000491C8162C18D491E0904090CC18503D028
:1040600019E002685268F1E70168CA6822F020028C
:10407000CA600168CA6822F48072CA6001684A692D
:1040800022F001024A61202180F83E10016B0129D3
:1040900003D0FEF7EBFF002008BD0021016301689B
:1040A0000C3151E8002F22F0100241E80023002BD0
:1040B000F5D101680A68D20602D50A6849680091FC
:1040C000818DFEF7FEFCE6E770B5044600680169E5
:1040D000E26821F44051114301612169A068E2695D
:1040E00008436169114308432168CA6849F20C63B7
:1040F0009A430243CA6020684169A26921F4407171
:104100001143416131492068884202D030498842D8
:1041100002D1FEF769F801E0FEF756F8E2690023E4
:10412000192164253226B2F5004F626828D0A0FB21
:104130000101930F9200FCF7F7F80146B0FBF5F090
:104140006FF01802504301EB800006EB0010B0FB4B
:10415000F5F000F0F002B1FBF5F002EB0012B1FB5C
:10416000F5F06FF01803584301EB800006EB0010E8
:10417000B0FBF5F000F00F0021681044886070BDBE
:10418000A0FB010192185B41FCF7CEF80146B0FBA1
:10419000F5F00201B1FBF5F06FF01803584301EBA5
:1041A000800006EBC000B0FBF5F000F0F80002EB79
:1041B0004002B1FBF5F0584301EB800006EBC00074
:1041C000B0FBF5F000F00700D6E70000001001405A
:1041D000001401400148FEF777BC000008040020ED
:1041E0000148FEF771BC00004C0400200C4808B5E3
:1041F00001680A684A680092CA6842F01002CA6000
:1042000001684A6942F040024A6112210091016846
:10421000044B806BA3F11802091DFCF74FFA08BD8F
:104220004C040020A846002070B5054600883F4C8D
:10423000C0F30A0121806878AA78C00840EA4210D9
:10424000C0F30A026280A878EB78800940EA830014
:104250002B79A1F5806140EA8320C0F30A06A6808D
:1042600028796B79400840EAC310C0F30A00E08067
:104270006B79A2F58062C3F30113A3726B79A6F583
:1042800080669B09E372EB88A3812B89E3816B89AC
:1042900023822B7BA3746B7BE374EB89A3822B8A31
:1042A00021806280A680A0F58060E080A3F5806315
:1042B0002381122229461E48FEF7DAFEA97B1D48FB
:1042C00001F00102428001F00202828001F004024A
:1042D000C28001F00802028101F04002428101F037
:1042E0008002828101F01002C28101F0200101826E
:1042F000A17C0170E17C4170A18A01F4807242824C
:1043000001F40072828201F48062C28201F40062D0
:10431000028301F48052428301F40052828301F44B
:104320008042C28301F40041018470BD5E470020D9
:1043300008040020A40000200148FEF7C5BB0000CF
:10434000900400200C4808B501680A684A68009289
:10435000CA6842F01002CA6001684A6942F040022D
:104360004A61C82100910168044B806BA3F1C80227
:10437000091DFCF7A3F908BD90040020C8450020E2
:1043800030B52648264987B090F84930CB7090F870
:104390004A208A70B0F85F20CA80B0F861200A8194
:1043A000B0F86C204A81826ECA60D0F88A2000EE94
:1043B000102AB5EEC00AF1EE10FA00D00A61427977
:1043C0004FF41675140902220C71072B07D06B2BC2
:1043D0000AD00B78012B04D0022B06D00BE001236E
:1043E0000B70B0F81B0002E00A70B0F82B0010B19F
:1043F000A84200D04A708DF8184008788DF819004E
:104400001020009000200290CDE90302012306AAAB
:1044100069460448FCF734FC07B030BDC0460020B4
:10442000900000201C030020FEE7000030B50C4681
:10443000050014D0022C12D90A48A11E0288284671
:10444000FCF7E8FB2919C2B211F8023C9A4206D1E6
:1044500011F8011CB1EB102F01D1012030BD00205B
:1044600030BD0000C600002030B50C4605000CD061
:10447000022C0AD9FF22611EFCF7E2FB291911F870
:10448000011C814201D1012030BD002030BD09074F
:10449000090E002804DB00F1E02080F800147047CA
:1044A00000F00F0000F1E02080F8141D704710B5F7
:1044B0000B2000F0EDFA810600D5012010BD0000B0
:1044C0000D49896B814207D10068016841F40021E0
:1044D00001600A48FFF7A8BE0949896B814209D1EA
:1044E0000068016841F4002101600648017806482F
:1044F000FEF774BF704700004C0400209046002077
:10450000900400208C000020004500200D49896B9C
:10451000814207D10068016821F4002101600A4846
:10452000FFF782BE0949896B81420AD100680168A0
:1045300021F400210160064801780348E038FEF7C5
:104540004DBF70474C040020A84600209004002076
:104550008C000020012131EE601A814070EE600A6B
:10456000491E00EE101AB8EEC00A20EE800AC0EE16
:10457000010ABDEEE00A10EE100A7047FDF7A8FC34
:10458000FFF73CFBFFF7A6F9FFF72AF9FFF7E4F87E
:10459000FFF704F9FFF77EFAFFF798FAFFF7B2FA90
:1045A000FFF728FAFFF706FAFCF710F8FCF738F8DF
:1045B000FFF7C8FEFFF71AFEFFF758F900F00EF8F4
:1045C000FEE701460020842900D0C81C704710B5C2
:1045D00000B9012000F05AFB002010BD10B500F01A
:1045E0007BFB002010BD7FB50D4604464169B0F944
:1045F000080081B1A16971B1FFF7E3FFD4E90512A9
:104600008DE80700D4E900102B46226900F077FC02
:10461000039004B070BDFFF7D4FF03A9CDE90001FA
:10462000208A2B4682B2D4E9001000F03BFC01281E
:1046300001D00020EDE70398EBE700002DE9F04101
:10464000184C0F460546E6682068001D00F056FA33
:1046500038B9206890F82C100120884021698143E6
:104660002161681C07D137B12168BDE8F0410E48CF
:10467000091D00F087BA20683544B54245602168BD
:1046800005D2A06BBDE8F041091D00F063BA606B74
:10469000091D00F05FFAA06A854200D2A562BDE85C
:1046A000F081000024000020380800202DE9F041AE
:1046B000054600F073FA2E4CA068401CA0602068EC
:1046C0002C4F10B1606940B32DE02560A06801282F
:1046D00029D1002606EB860007EB800000F02CFABB
:1046E000761C072EF6D323488C3000F025FA21489B
:1046F000A03000F021FA1F48B43000F01DFA1D4828
:10470000C83000F019FA1B48DC3000F015FA1948DF
:104710008C3060631430A06305E02068E96AC06AE9
:10472000884200D82560606A401C6062E96A012006
:10473000226988401043206101EB810007EB800073
:10474000291D00F01FFA00F049FA606900280CD01A
:104750002068E96AC06A884207D207494FF0805052
:104760000860BFF34F8FBFF36F8FBDE8F08100008B
:10477000240000205C07002004ED00E010B5044692
:1047800090F8510058B101280CD002280FD05020C9
:1047900080F31188BFF34F8FBFF36F8FFEE7206B5D
:1047A00000F030FA2046BDE8104000F02BBA10BDF2
:1047B00010484FF47051420706D0C01D0D4920F03B
:1047C0000700411AC1F570510B4A00230144C2E9A8
:1047D00000030839183A21F0070111604B600B60A3
:1047E0000B1AC0E9001393604FF000405360506112
:1047F000704700004C08002078000020144E154C33
:10480000A6F1C8074FF08058DFF84C9012E000BFC7
:1048100000F0C4F9F068C568281D00F06FF9A068C1
:10482000401EA0606068401E606000F0D7F9284616
:10483000FFF7A4FF60680028EAD138680128F9D999
:10484000C9F80080BFF34F8FBFF36F8FF2E700000E
:10485000240800202400002004ED00E02DE9F047AA
:104860009A46DDE9098481466FF00303206B03EB70
:1048700082021044089E20F00707780707D05020D6
:1048800080F31188BFF34F8FBFF36F8FFEE70025D2
:1048900061B1002023180A5C83F834200A5C12B14D
:1048A000401C1028F6D384F8435001E084F83450BB
:1048B000072E00D30626E662C4E91165201D00F02C
:1048C00046F904F1180000F042F92461C6F107002E
:1048D0006462A061E56484F8505052464946384607
:1048E00000F0C0F82060B8F1000F01D0C8F8004017
:1048F000BDE8F08730B5114900E011460A688242F0
:10490000FBD34B685C18844203D14068184448606C
:10491000084643681C18944209D1084C183C246886
:10492000A24209D052681A4442600A6812680260C2
:10493000814200D0086030BD0460F9E778000020B3
:104940000648416B096829B1416BC968C968496863
:10495000816270474FF0FF31FAE700002400002029
:1049600008484068401C4FF0500080F3118804D084
:10497000BFF34F8FBFF36F8FFEE7BFF34F8FBFF3D0
:104980006F8FFEE7800000202DE9F04105460027EB
:1049900000F0D8F9324E306808B9FFF709FF7069A6
:1049A00005424ED1C5B3083568070ED005F00700A3
:1049B000C0F108000544680707D0502080F3118833
:1049C000BFF34F8FBFF36F8FFEE72DB37068854243
:1049D00037D82348183001460C6801E020460C46C1
:1049E0006168A94202D221680029F7D131688C425E
:1049F00027D007682168016060680837411B1029CB
:104A00000FD96019420708D0502080F31188BFF3F6
:104A10004F8FBFF36F8FFEE713E041606560FFF7D4
:104A200069FF61687068401A7060B268904200D295
:104A3000B060706901430020C4E90001F068401CC7
:104A4000F06000F0EDFA780707D0502080F311886D
:104A5000BFF34F8FBFF36F8FFEE73846BDE8F0819D
:104A60006000002010B5031F4FF080741C601B1FF6
:104A700021F001011960191F044B0B6014390A6001
:104A8000091F6FF0020244380A6010BD6149000836
:104A90001FB500218DF80C10FF23012203A98DE81A
:104AA0000E00134602466C210348FDF7D9F89DF825
:104AB0000C0004B010BD00006C03002070B50D4662
:104AC000FFF7E6FF00F00F042846FFF7E1FF40EA9A
:104AD000042070BD01EE100A70EEC00A0120B8EE8D
:104AE000C11A8840401E21EE201A00EE900AF8EE0E
:104AF000E01AC1EE210A30EE800A7047D0E9013297
:104B000001699A60D0E901235A604A68824201D162
:104B100082684A60002202610868401E08600868D6
:104B200070470000034B036003F1540008608020CD
:104B300010607047C800002000F108014FF0FF32FC
:104B4000C0E90112C16001610021016070470021CC
:104B50000161704730B50B685A1C02D000F10802A1
:104B600002E0026904E02246546825689D42FAD9B1
:104B700053684B6099608A60516008610168491C04
:104B8000016030BD42684A6093688B6093685960E9
:104B9000916008610168491C01607047502080F3F2
:104BA0001188BFF34F8FBFF36F8F0A494868401CCD
:104BB000486001280CD10848006810F0FF0F07D0AA
:104BC000502080F31188BFF34F8FBFF36F8FFEE744
:104BD000704700008000002004ED00E008494868AC
:104BE00028B1401E486001D180F3118870475020E1
:104BF00080F31188BFF34F8FBFF36F8FFEE7000084
:104C00008000002070B500282AD0164DA0F10804BD
:104C100060686969084207D1502080F31188BFF3AA
:104C20004F8FBFF36F8FFEE722683AB1502080F3B9
:104C30001188BFF34F8FBFF36F8FFEE7884360602B
:104C400000F080F860686968084468602046FFF7F3
:104C500051FE2869401C2861BDE8704000F0E0B9B1
:104C600070BD0000600000204FF0E02000210161D5
:104C7000816105494FF47A720968B1FBF2F1491E6E
:104C800041610721016170472000002010B502003A
:104C900014D00F48006B38B1502080F31188BFF357
:104CA0004F8FBFF36F8FFEE700F04CF800211046E6
:104CB000FFF7C4FC00F0B4F9002807D105494FF014
:104CC00080500860BFF34F8FBFF36F8F10BD00009F
:104CD0002400002004ED00E010B586B00024039409
:104CE00005AA04A903A80494FFF71CFFDDE903014A
:104CF0000094CDE9011000230EA11048059A00F0A0
:104D0000FEF80F490028C86211D0502080F31188A6
:104D1000BFF34F8FBFF36F8F4FF0FF3088620120DA
:104D20004861CC6006B0BDE8104000F041B806B064
:104D300010BD000049444C4500000000FD4700083C
:104D4000240000200248016B491C016370470000E9
:104D5000240000201448016B11B10121C16170478A
:104D60000021C1610169B1FA81F1C1F11F0101EBBB
:104D700081020E4951F822306BB101EB820101F141
:104D800008034A6852684A609A4201D152684A60F0
:104D9000D16801607047502080F31188BFF34F8FB6
:104DA000BFF36F8FFEE70000240000205C070020A7
:104DB0001CB537480168374A914207D1502080F32B
:104DC0001188BFF34F8FBFF36F8FFEE70068314943
:104DD000491E884207D1502080F31188BFF34F8FBE
:104DE000BFF36F8FFEE72C4908780190FF20087011
:104DF00008788DF800009DF800009DF8002000F074
:104E0000F000904207D0502080F31188BFF34F8FFD
:104E1000BFF36F8FFEE79DF80000204C00F05000BC
:104E200020700720A06005E09DF8002052008DF85A
:104E30000020401E9DF800201206F5D4A060032833
:104E400007D0502080F31188BFF34F8FBFF36F8FCF
:104E5000FEE74FF44070A060019808700C482030C5
:104E6000016841F470010160016841F07041016026
:104E7000FFF7FAFE00206060FBF7FAF908480168C6
:104E800041F040410160FBF7DFF900201CBD00004C
:104E900000ED00E071C20F4100E400E0800000205E
:104EA00034EF00E02DE9FF5F8346DDE90E87994688
:104EB00016468A469000FFF767FD05001CD0542077
:104EC000FFF762FD040014D00020256384F8510030
:104ED000CDE90240CDE900874B463246514658465F
:104EE000FFF7BCFC2046FFF7E1FB012004B0BDE862
:104EF000F09F2846FFF786FE4FF0FF30F6E7F0B54B
:104F000085B0DDE90B640A9DA6B1DCB1542700979A
:104F10002663022684F85160002604AFCDE90246DC
:104F2000CDE90057FFF79AFC2046FFF7BFFB049836
:104F300005B0F0BD502080F31188BFF34F8FBFF351
:104F40006F8FFEE7502080F31188BFF34F8FBFF3C0
:104F50006F8FFEE72DE9F0412F4C0026206B28B122
:104F6000A069401CA0613046BDE8F081E5686D1C79
:104F7000E56013D1606B006838B1502080F3118870
:104F8000BFF34F8FBFF36F8FFEE7606BA16B616361
:104F9000A063206A401C2062FFF7D2FCA06ADFF801
:104FA0007C80854209D3606B0068A0B1606BC068EB
:104FB000C7687868854211D2A0622068C06A00EB99
:104FC000800158F82100012800D90126E069002855
:104FD000C9D00126C7E74FF0FF30EDE7381DFFF7D6
:104FE0008DFDB86A18B107F11800FFF787FDF96A5F
:104FF0000120226988401043206101EB810108EB08
:105000008100391DFFF7BEFDF86A2168C96A884230
:10501000C9D30126C7E70000240000205C07002058
:105020002DE9F0472C4D00242746286B38B1FFF7B7
:10503000B5FD286B401E2863286B40B146E0502028
:1050400080F31188BFF34F8FBFF36F8FFEE7A9681E
:10505000224E0120D1B3A6F1B40980463068E8B1F0
:10506000F068C46804F11800FFF748FD201DFFF741
:1050700045FDE06A2A6908FA00F11143296100EB55
:10508000800109EB8100211DFFF77CFDE06A2968A2
:10509000C96A8842E2D3C5F81C80DFE70CB1FFF78C
:1050A0004FFCAC6944B14646FFF754FF00B1EE61D6
:1050B000641EF9D10020A861E86938B108490127C8
:1050C00038070860BFF34F8FBFF36F8FFFF786FD80
:1050D0003846BDE8F08700002400002010080020BA
:1050E00004ED00E04FF04070E1EE100A7047000060
:1050F00098540008953B00080000000000000000E4
:105100008000000000000000000000008054000843
:10511000A13B00080000000000000000800000002B
:1051200000000000000000008C540008C13B000893
:1051300000000000000000008000000000000000EF
:1051400000000000A4540008C93B00080000000053
:1051500000000000800000000000000000000000CF
:1051600000061016000610160000000000000000E7
:1051700001020304060708090000000001020304FD
:10518000005EBCE2613FDD83C29C7E20A3FD1F4127
:105190009DC3217FFCA2401E5F01E3BD3E6082DC17
:1051A000237D9FC1421CFEA0E1BF5D0380DE3C6207
:1051B000BEE0025CDF81633D7C22C09E1D43A1FFF7
:1051C0004618FAA427799BC584DA3866E5BB5907E7
:1051D000DB856739BAE406581947A5FB7826C49AD7
:1051E000653BD987045AB8E6A7F91B45C6987A24C7
:1051F000F8A6441A99C7257B3A6486D85B05E7B9B7
:105200008CD2306EEDB3510F4E10F2AC2F7193CDA6
:10521000114FADF3702ECC92D38D6F31B2EC0E5096
:10522000AFF1134DCE90722C6D33D18F0C52B0EE86
:10523000326C8ED0530DEFB1F0AE4C1291CF2D7376
:10524000CA947628ABF517490856B4EA6937D58B66
:105250005709EBB536688AD495CB2977F4AA481656
:10526000E9B7550B88D6346A2B7597C94A14F6A846
:10527000742AC896154BA9F7B6E80A54D7896B3536
:105280000000891112239B322446AD573665BF7446
:10529000488CC19D5AAFD3BE6CCAE5DB7EE9F7F8F6
:1052A0008110080193331A22A5562C47B7753E6426
:1052B000C99C408DDBBF52AEEDDA64CBFFF976E8D6
:1052C00002218B30100299132667AF763444BD5506
:1052D0004AADC3BC588ED19F6EEBE7FA7CC8F5D9B6
:1052E00083310A2091121803A7772E66B5543C45E6
:1052F000CBBD42ACD99E508FEFFB66EAFDD874C996
:1053000004428D5316619F702004A9153227BB36C5
:105310004CCEC5DF5EEDD7FC6888E1997AABF3BA75
:1053200085520C4397711E60A1142805B3373A26A5
:10533000CDDE44CFDFFD56ECE9986089FBBB72AA55
:1053400006638F7214409D512225AB343006B91785
:105350004EEFC7FE5CCCD5DD6AA9E3B8788AF19B35
:1053600087730E6295501C41A3352A24B116380765
:10537000CFFF46EEDDDC54CDEBB962A8F99A708B15
:10538000088481951AA793B62CC2A5D33EE1B7F045
:105390004008C919522BDB3A644EED5F766DFF7CF5
:1053A000899400859BB712A6ADD224C3BFF136E025
:1053B000C1184809D33B5A2AE55E6C4FF77D7E6CD5
:1053C0000AA583B4188691972EE3A7F23CC0B5D105
:1053D0004229CB38500AD91B666FEF7E744CFD5DB5
:1053E0008BB502A499961087AFF326E2BDD034C1E5
:1053F000C3394A28D11A580BE77F6E6EF55C7C4D95
:105400000CC685D71EE597F42880A1913AA3B3B2C4
:10541000444ACD5B5669DF78600CE91D722FFB3E74
:105420008DD604C79FF516E4A9902081BBB332A2A4
:10543000C55A4C4BD7795E68E11C680DF33F7A2E54
:105440000EE787F61CC495D52AA1A3B03882B19384
:10545000466BCF7A5448DD59622DEB3C700EF91F34
:105460008FF706E69DD414C5ABB122A0B992308364
:10547000C77B4E6AD5585C49E33D6A2CF11E780F14
:1054800041726D5F5461736B000000007375636B54
:1054900065725F5461736B0064656661756C74540A
:1054A00061736B0072656D6F74655F7461736B001F
:1054B000D054000800000020C8000000C40100080B
:1054C00098550008C8000020E84D0000E0010008E1
:1054D00000000000000000000000000000000000CC
:1054E00000000000010000001000000000000000AB
:1054F0000024F40000000000000000000000000094
:10550000000000000000000000000000000000009B
:10551000000000000000000000000000000000008B
:10552000000000000000000000000000000000007B
:10553000000000000000000000000000000000006B
:10554000000000000000000000000000000000005B
:1055500000000000AAAAAAAA0000000000000000A3
:10556000000000000000000000000000000000003B
:10557000000000000000000000000000000000002B
:10558000000000000000000000000000000000001B
:08559000000000000000FFFF15
:040000050800018965
:00000001FF
